:020000040800F2
:10000000002001203513000885130008851300081F
:10001000A57800088513000885130008000000007B
:100020000000000000000000000000008513000830
:10003000851300080000000001780008F53F000863
:100040008513000885130008851300088513000830
:100050008513000885130008851300088513000820
:100060008513000885130008851300086D12000829
:100070008513000885130008851300088513000800
:1000800085120008851300088513000885130008F1
:1000900085130008851300088513000885130008E0
:1000A00085130008851300088513000885130008D0
:1000B00085130008851300088513000885130008C0
:1000C0008513000885130008851300089D12000899
:1000D00085130008851300088513000885130008A0
:1000E0008513000885130008851300088513000890
:1000F0008513000885130008851300088513000880
:10010000851300088513000885130008851300086F
:10011000851300088513000885130008851300085F
:100120003D120008851300088513000855120008C9
:10013000851300088513000885130008851300083F
:10014000851300088513000885130008851300082F
:10015000851300088513000885130008851300081F
:10016000851300088513000885130008851300080F
:10017000851300088513000885130008000000009F
:08018000851300088513000837
:1001900010B5054C237833B9044B13B10448AFF3C1
:1001A00000800123237010BD000300200000000028
:1001B000A07D000808B5034B1BB103490348AFF30A
:1001C000008008BD0000000004030020A07D00089E
:1001D000A3F5803A704700BF174B002B08BF134BA5
:1001E0009D46FFF7F5FF00218B460F461348144A42
:1001F000121A07F0C7FB0E4B002B00D098470D4B8F
:10020000002B00D098470020002104000D000D486D
:10021000002802D00C48AFF3008007F081FB2000DB
:10022000290001F049F807F067FB00BF0000080053
:10023000000000000000000000000000000300209B
:10024000FC42002000000000000000004484000880
:10025000000000200003002000030020FC420020DA
:1002600003685A004CBF43F0004323F00043184496
:10027000704700BF2DE9F84329B34F1E04461546C9
:100280003E464FF0000808EB060101EBD171491022
:1002900004EBC1094846FFF7E3FF0346C8000830F6
:1002A0008F42204409D0AB4209D8FFF7D9FF01386B
:1002B000A8420AD201F10108E5E7AB4205D9884519
:1002C00001D04E1EDFE74FF000094846BDE8F88335
:1002D000012807D0022807D0044B00280CBF18467D
:1002E000002070470248704702487047950900088F
:1002F000990900089D09000830B5234B83B00446D6
:100300008D1E3BB301A92846AFF30080E8B10199E7
:100310002A46FFF7AFFF0146B8B1FFF7A1FF4B68D0
:10032000A064012B2BD0002B01F1040023DBFFF78D
:1003300097FF0023C4E913030368002B10DBFFF7CA
:100340008FFF2061002003B030BD0023092023610E
:1003500003B030BD0D490E48091AC9100191D7E705
:10036000C3F30360FFF7B4FF0028206114BF00202F
:10037000092003B030BD0123C4E91303DCE70023E7
:1003800023610520DFE700BF000000001C84000897
:100390007C8100080368DA0710B5044606D49B0781
:1003A00000F1480009D500F04BFC2368590709D536
:1003B0001A070ED5DB0613D510BD00F039FC2368F3
:1003C0005907F5D404F1D00000F042FC23681A0765
:1003D000F0D404F5A87000F043FC2368DB06EBD4EE
:1003E00004F5E870BDE8104000F07EBC03460068EC
:1003F00000B11844704700BF09207047704700BF24
:1004000070B504460E46316C2046FFF775FF054671
:1004100088B9336C636132462369214601209847CD
:100420000828F0D0072806D12846316CFFF7E6FFF0
:10043000301D00F0F1FB07F057FA00BF2DE9F0473F
:100440000D1D064614460FCDADF5727D0DF10C0C59
:10045000ACE80F000FCDACE80F000FCDACE80F00FB
:1004600095E80F0002ADF768D6F818808CE80F0009
:1004700000232B6021E02B6C73614FF4F07229464E
:100480007AA807F071FA33697AAA3146504698473C
:10049000889BCDE9005821466B648146334632463D
:1004A0000120B8470446E8B94FF4F0727AA928460B
:1004B00007F05AFAB9F1080F1BD1296C3046FFF743
:1004C0001BFF09345FFA84FA81460028D3D0AB6B56
:1004D0004AF01001CDE9005832466B6401203346E2
:1004E000B84708B14FF0090948460DF5727DBDE8DF
:1004F000F087B9F1070FF5D12046296CFFF77EFF91
:1005000003A800F089FB00BF406C7047F0B5CB6BCF
:100510000B640E1D0F4605460FCEF9B001AC0FC49B
:100520000FCE0FC40FCE0FC496E80F004FF0FF366A
:1005300084E80F00009606E02B696A462946984732
:100540000828044608D110992846FFF7D5FE002850
:10055000F2D0092079B0F0BD6846FFF71BFF062CEA
:10056000F7D139462846FFF74BFF00BF30B4DD6BAB
:10057000C160826119461D64002230BC5EE700BF85
:1005800070B5C66843690B64AEB903690A46044690
:100590000D46014602209847072805D008280FD1AC
:1005A00029462046FFF72CFF3046296CFFF726FF2F
:1005B000281D00F031FB0122FFF740FF07F094F9FE
:1005C00007F092F9C2681AB1CA6B0A64002235E7D3
:1005D0009CE700BF704700BF836801460BB1012054
:1005E00018477047012912D009D873B90F2A0CD8BF
:1005F00000EB820218465368009A13607047033973
:10060000012994BF0120022070470220704708464C
:10061000704700BF10B584B0002303AC0A460094B5
:100620001946FFF7DFFF039804B010BD012912D06F
:1006300009D873B90F2A0CD800EB8200009A12680F
:100640004260184670470339012994BF01200220F7
:100650007047022070470846704700BF10B584B04D
:10066000002303AC039200940A461946FFF7DEFF0D
:1006700004B010BDF0B5D36B1364151D8C4606464F
:100680000FCDADF50F7D17AC0FC40FCD0FC40FCD3F
:100690000FC495E80F004FF0FF3784E80F00654660
:1006A000169710E0FFF7DAFF294616A8B047034671
:1006B00016AA6946082083B9049B98470528044672
:1006C0000CD0092809D026996846FFF715FE034685
:1006D0006A460C2116A8002BE4D0092416A8FFF7BF
:1006E00059FE20460DF50F7DF0BD00BF2DE9F04FFE
:1006F000CC6C89B00D4654F8041B0694174600F0E4
:1007000003081E46002B79D00B0CDAB209048DF8D1
:100710001D30022304EB820405918DF81C302B6DF3
:10072000B8F1020F08BFAC6B13F001030CD03846D0
:1007300005A900F073FB18B9082009B0BDE8F08FD7
:10074000092009B0BDE8F08FD4F800A0BAF1000F7D
:10075000EDD0019300F008030293022E4AD0B4F8C2
:1007600000A0B4F802900434AA6C29F0010B0F2108
:1007700038469344FFF74EFF834539D82AF00102EB
:100780005A44824294BF002001204FEA490303F0FB
:1007900002030AF0010A43EA0A03012B49D0022BA3
:1007A00032D0002BCCD1B8F1000F02D0002840F09D
:1007B000CD800434D4F800A0BAF1000FCDD105A942
:1007C000384600F02BFB0028BAD1019B002BB3D098
:1007D0000F213846FFF71EFF0E2102463846FFF76D
:1007E0003DFF38466A4A0F21FFF738FF0720A8E788
:1007F0000020CAE7D4F804900834B5E709020323BF
:100800000591ADF81C308AE7236823F0004BB8F15E
:10081000000F45D128B1029A002A5CD0BBF1000F2D
:1008200074D0002B00DA04340BF1010B04EB8B04C1
:10083000C0E7B8F1000F19D1B0B1D4E90023991C79
:100840004FEAD2723FF47CAF05F1580101330491B5
:1008500000F09080201DFFF7C9FD04AB014628463B
:10086000AFF3008000285BD10834A3E70D213846A0
:10087000D5F82090FFF7CEFE8145F5D1AB6A9C42BA
:10088000F2D12046FFF7ECFC0F2102463846FFF775
:10089000E5FE38462A460021FFF7E0FE072050E734
:1008A0000D213846D5F82090FFF7B4FE814501D0E0
:1008B0002368B6E7AB6A9C42FAD104220021C5E95D
:1008C0000B12A318C5F828B06B6323688B4259DB61
:1008D00001230193A8E705F15803CDF80C8004F13A
:1008E000040AB04691461E460DE00496FFF77EFDD1
:1008F00004AB014600222846AFF3008009F101094C
:100900000AF1040AE8B9D9455046EED138460D211E
:10091000FFF780FE049B2862C5E90934062010E732
:1009200081460D213846FFF775FEB9F1020F2862A6
:1009300025D12B46049A43F82C2F6B62AC6206201B
:10094000FFE646462368DDF80C806AE72046FFF79D
:1009500087FC04340246AC6328461446AFF300809B
:1009600000283FF4EDAE384622460F21FFF776FE11
:100970000720E6E638460D21FFF74CFE2862049B6F
:100980006B62DBE70BF1010004EB80007AE700BF4C
:10099000000000000023A9E60123A7E60223A5E644
:1009A0002DE9F0430646C3B015461C46042900F263
:1009B000B980DFE801F09A53B7290300002C40F01A
:1009C000B180102A00F2AE800368D80600F1F380EF
:1009D00020AF384600F092F9B06B0023012404FAEE
:1009E00003F22A42014604D051F8042B47F8232091
:1009F00008460133042BF2D1B063384600F074F995
:100A0000002043B0BDE8F083032C40F08B8094B20B
:100A100004EB1243102B4FEA124500F28380036867
:100A20001F0700F1D08020AF384600F03BF907EBFC
:100A3000C501B56B54B10B46E81A01EBC401E400E3
:100A40001A5843F8042B8B42FAD125443846B56333
:100A500000F006F9002043B0BDE8F083012C4FEA16
:100A6000124895B25AD0052C5CD108EB0509B9F1B2
:100A7000200F57D8B8F10F0F77D9A946002D40F0B5
:100A80008880B36B6DB320AF4FF0000907EBC80748
:100A9000043F03EBC50553F8041B47F8041FAB42A2
:100AA000F9D1B9F1000F0FD06F464146102938BF78
:100AB000102107EBC101843903EBC90553F8040B7E
:100AC00041F8040FAB42F9D1012C00F08480B8F159
:100AD0000F0FB56345D9B9F1000F02D0684600F099
:100AE000B7F8002043B0BDE8F083DCB9876B23463C
:100AF000012094B206F1040C00FA03F222423946B6
:100B000004D051F8042B4CF823200F460133102B4E
:100B1000F2D115F40050E4D1B76304E008EB05030B
:100B2000102B03D9022043B0BDE8F083B8F10F0FBA
:100B3000F8D83368DA0706D5304623F0030340F8C7
:100B4000483B00F079F820AF384600F075F8B36BF9
:100B5000002D99D11D460435B563384600F068F87C
:100B6000BFE720A800F06CF8B5E7B9F1100F40D945
:100B7000A9F110093368D90708D523F001033046DD
:100B800043F0020340F8483B00F05EF8B9F1000F73
:100B900032D033685A0720D4B8F10F0F25D96F46E9
:100BA0003846C8F1100500F057F8002DB36B7FF7F9
:100BB0007CAF20AF6AE723F01003336006F5E870DE
:100BC00000F09CF804E723F00803036000F5A87028
:100BD00000F068F827E720AFBDE7304623F00403B4
:100BE00040F8D03B00F038F8D6E720A800F02CF809
:100BF000D5E74FF00009BDE7B8F10F0F3FF641AF61
:100C000020AF384600F020F8B36B002D7FF43CAFE6
:100C1000384600F015F864E700F1340191E8380037
:100C20009C46A6464CF8045D90E8FF0FE54600BDE3
:100C300090EC210B704700BF80EC210B704700BF88
:100C400090EC200B704700BF80EC200B704700BF7A
:100C5000D0EC200B704700BFC0EC200B704700BFEA
:100C6000F0EC0201F0EC0211F0EC0221F0EC0231A8
:100C7000F0EC0241F0EC0251F0EC0261F0EC027198
:100C8000F0EC0281F0EC0291F0EC02A1F0EC02B188
:100C9000F0EC02C1F0EC02D1F0EC02E1F0EC02F178
:100CA000704700BFE0EC0201E0EC0211E0EC022131
:100CB000E0EC0231E0EC0241E0EC0251E0EC0261D8
:100CC000E0EC0271E0EC0281E0EC0291E0EC02A1C8
:100CD000E0EC02B1E0EC02C1E0EC02D1E0EC02E1B8
:100CE000E0EC02F1704700BFB0FC0181B0FC019163
:100CF000B0FC01A1B0FC01B1704700BFA0FC0181B4
:100D0000A0FC0191A0FC01A1A0FC01B1704700BFB3
:100D1000EC4600B52DE900502DE9FF1F4FF0000310
:100D20002DE90C0001A9FFF7F1FBDDF840E012B05E
:100D3000704700BFEC4600B52DE900502DE9FF1FBC
:100D40004FF000032DE90C0001A9FFF719FCDDF8B5
:100D500040E012B0704700BFEC4600B52DE90050EE
:100D60002DE9FF1F4FF000032DE90C0001A9FFF74B
:100D700029FCDDF840E012B0704700BFEC4600B53A
:100D80002DE900502DE9FF1F4FF000032DE90C0065
:100D900001ABFFF7EBFBDDF840E012B0704700BF9E
:100DA000EC4600B52DE900502DE9FF1F4FF0000380
:100DB0002DE90C0001AAFFF75DFCDDF840E012B060
:100DC000704700BF027A7AB9437AA3B14268013B07
:100DD00010B4437213680321141D01721A02446097
:100DE000026010BC180E70470368013A02721A02C2
:100DF0000260180E7047B020704700BF00B585B084
:100E000003AA0023009219460C22FFF7EBFB03987C
:100E100005B05DF804FB00BFF0E700BF2DE9F0432B
:100E2000054685B00E464FF000083046FFF7CAFF72
:100E3000B028044600F0B280070620D500F0F00389
:100E4000802B4DD0902B36D0A02B60D0B02B74D0FF
:100E5000C02B00F08B8000F0F803D02B0BD100F0FA
:100E60000702013242F40022052301212846FFF740
:100E700097FD0028D9D0092005B0BDE8F0830DF119
:100E80000C09002319468700CDF800900D22284652
:100E9000FFF7A8FBFFB2039BCDF800900437600674
:100EA0004CBFDF1BFF18002319460D22284603976D
:100EB000FFF7BCFBB9E700F00D030D2BDBD003AF50
:100EC000002300F00F02194600972846FFF78AFB1F
:100ED0000023009719460D222846FFF7A7FBA4E739
:100EE0003046FFF76FFF24022043B0F5004FC2D019
:100EF00004010023A2B219462846FFF751FD00283D
:100F0000B9D114F4004F18BF4FF001088DE7C24368
:100F100002F007034FF47F621A41010702F47F6277
:100F20004FF0000348BF42F4804219462846FFF7BD
:100F300037FD00283FF479AF9DE7B12833D0B228C0
:100F400000F08B80B32839D000F0FC03B42B92D092
:100F500000F007020132012342F40022194628461C
:100F6000FFF71EFD00283FF460AF84E7C62842D09B
:100F7000C7284CD000F0F803C02B5BD0C82860D045
:100F8000C9287FF478AF3046FFF71CFF020300F05A
:100F90000F0002F470220130024365E7B8F1000F40
:100FA00018D0002068E73046FFF70CFF0246002803
:100FB0003FF461AF10F0F003D0D05CE73046FFF7AC
:100FC00001FF010300F00F0001F47021421C012316
:100FD0000A43C3E703AC43460E2241460094284629
:100FE000FFF700FB0094284643460F224146FFF7D7
:100FF0001DFB404640E73046FFF7E4FE010300F0EA
:101000000F0001F47021421C03230A43A6E7304677
:10101000FFF7D8FE024600283FF42DAF10F0F00392
:101020007FF429AF04212846FFF7BAFC00283FF4DB
:10103000FCAE20E700F00F020132032342F420222D
:101040008CE73046FFF7BEFE00F0F00200F00F0321
:101050001032013343EA023206E700230DF10C0996
:101060000D221946CDF800902846FFF7BBFA30460E
:10107000FFF7A8FE02064FF002070CD5039B00F015
:101080007F00B840034430460393FFF79BFE0306FE
:1010900007F10707F2D4039BCDF8009000F07F041E
:1010A00003F50172BC400023144419460D22284662
:1010B0000394FFF7BBFAB8E610B5C26C84B053686E
:1010C00003248DF80C401B0202F108040846D27973
:1010D000019301A902948DF80D20FFF79FFE04B043
:1010E00010BD00BF08B5FFF797FE806C08BD00BFBC
:1010F00008B5FFF791FEC06CC379023300EB8300A3
:1011000008BD00BF034613F8012B002AFBD1181AB3
:101110000138704780B483B000AF03463960FB717B
:1011200097F90730002B0BDA3B68DAB20C49FB79F0
:1011300003F00F03043B1201D2B20B441A7609E00C
:101140003B68DAB2074997F907301201D2B20B4473
:1011500083F8002300BF0C37BD465DF8047B704761
:1011600000ED00E000E100E080B582B000AF786003
:101170007B68B3F1807F01D3012311E07B6823F00A
:101180007F43094A013B53600F214FF0FF30FFF7C7
:10119000C1FF054B00229A60034B07221A6000230F
:1011A00018460837BD4680BD10E000E080B500AFAE
:1011B0000848FFF7D9FF02F092FE002002F002FB80
:1011C000012002F0FFFA022002F0FCFA00F0DBF846
:1011D00000BF80BD4090020080B582B000AF002308
:1011E000FB710F4801F09CFB05220D490D4800F0F2
:1011F000EFFC0D4801F094FB0C4802F04FF80C484E
:1012000001F012FA0B490C4800F01CFF00F0C3F883
:101210000346FB71FB7918460837BD4680BD00BF09
:10122000D440002090400020244100207C41002038
:10123000C44000201C7E0008AC40002080B500AFF8
:1012400006F048FA002001F0CFFF00BF06F074FA64
:1012500000BF80BD80B500AF06F03CFA002001F071
:10126000A9FF00BF06F068FA00BF80BD80B500AFDF
:1012700006F030FA012001F0B7FF00BF06F05CFA7B
:1012800000BF80BD80B500AF06F024FA012001F058
:1012900091FF00BF06F050FA00BF80BD80B500AFDF
:1012A00006F018FA034801F021FF00BF06F044FAE7
:1012B00000BF80BDD440002080B500AF72B604F0FE
:1012C000B7FBFFF773FF04F03FFCFFF785FF00F06B
:1012D00003F80023184680BD80B582B000AF00231C
:1012E0007B60114A7B6832F813307B807B6803F0A7
:1012F0000103002B03D1022002F0DCFB02E00220FC
:1013000002F0ACFB7B881A460121084800F090FCF3
:101310007B6801337B607B68FF2B01DD00237B60F2
:10132000034800F0E9FEDCE70400002090400020C4
:10133000AC400020DFF834D0002103E00C4B5B58B8
:10134000435004310B480C4B42189A42F6D30B4AD7
:1013500002E0002342F8043B094B9A42F9D302F021
:1013600007FE06F0DDFAFFF7A7FF70470020012017
:101370004484000800000020000300200003002037
:10138000FC420020FEE780B400AF00231846BD46B3
:101390005DF8047B704780B400AF00231846BD465B
:1013A0005DF8047B704780B584B000AF78607B68DF
:1013B0000022C3F8DC200023FB73FB7B052B11D834
:1013C000FB7B7A6860335B00134400225A80FB7B0E
:1013D0007A6864335B0013440022DA80FB7B0133BC
:1013E000FB73EAE70023FB73FB7B5A1CFA731A4674
:1013F0007B6803F1E0017B682A3243F82210FB7B13
:101400005A1CFA731A467B6803F538717B682A32D6
:1014100043F82210FB7B5A1CFA731A467B6803F5CB
:1014200078717B682A3243F82210FB7B5A1CFA73CE
:101430001A467B6803F59C617B682A3243F82210C8
:10144000FB7B5A1CFA731A467B6803F5DC617B68E8
:101450002A3243F82210FB7B5A1CFA7319467B6828
:1014600003F51B5320337A682A3142F821300023D8
:10147000FB73FA7B1346DB009B1A9B007A681344CC
:101480001C220021184606F07DFAFA7B1346DB0089
:101490009B1A9B007A68D018FA7B7B682A3253F833
:1014A00022102023102203F085FAFB7B0133FB730B
:1014B000FA7B1346DB009B1A9B007A6813441C22BC
:1014C0000021184606F05EFAFA7B1346DB009B1AF1
:1014D0009B007A68D018FA7B7B682A3253F8221076
:1014E0000423402203F066FAFB7B0133FB73FA7B93
:1014F0001346DB009B1A9B007A6813441C220021D0
:10150000184606F03FFAFA7B1346DB009B1A9B0055
:101510007A68D018FA7B7B682A3253F822100223AB
:10152000802203F047FAFB7B0133FB73FA7B1346FF
:10153000DB009B1A9B007A6813441C22002118468A
:1015400006F020FAFA7B1346DB009B1A9B007A68B0
:10155000D018FA7B7B682A3253F8221002234FF40A
:10156000807203F027FAFB7B0133FB73FA7B13468F
:10157000DB009B1A9B007A6813441C22002118464A
:1015800006F000FAFA7B1346DB009B1A9B007A6890
:10159000D018FA7B7B682A3253F8221008234FF4C4
:1015A000806203F007FAFB7B0133FB73FA7B13467F
:1015B000DB009B1A9B007A6813441C22002118460A
:1015C00006F0E0F9FA7B1346DB009B1A9B007A6871
:1015D000D018FA7B7B682A3253F8221002234FF48A
:1015E000006203F0E7F9FB7B0133FB737B6818466D
:1015F0001037BD4680BD80B483B000AF78607B6893
:1016000018460C37BD465DF8047B704780B58CB03A
:1016100000AFF860B9607A60002387F82F3097F840
:101620002F30052B79D897F82F20F9681346DB0067
:101630009B1A9B000B4418331B88BB62BA6ABB68B9
:101640009A4264D397F82F201346DB009B1A9B0025
:10165000FA6813440021184603F03CFA03467B6203
:101660007B6A002B53D0EFF31083FB61FB693B6275
:1016700072B600BFBFF34F8F00BFBFF36F8F00BFC5
:10168000FB68D3F8DC20BB6A1A44FB68C3F8DC2093
:1016900097F82F20F96802F160035B000B445B8828
:1016A000013398B2F96802F160035B000B44024613
:1016B0005A8097F82F30FA6860335B0013445A88D9
:1016C00097F82F30F96864335B000B44DB889A424B
:1016D0000FD997F82F3097F82F10FA6860335B0016
:1016E00013445888FA6801F164035B00134402460E
:1016F000DA803B6ABB61BB6983F3108800BFBFF32C
:101700004F8F00BFBFF36F8F00BF7B6A87E097F8F2
:101710002F30013387F82F3081E7002387F82E30F0
:1017200097F82E30052B79D897F82E20F9681346B4
:10173000DB009B1A9B000B4418331B88BB62BA6A00
:10174000BB689A4264D397F82E201346DB009B1A9D
:101750009B00FA6813447968184603F0BBF9034606
:101760007B627B6A002B51D0EFF310837B617B6936
:101770003B6272B600BFBFF34F8F00BFBFF36F8FE6
:1017800000BFFB68D3F8DC20BB6A1A44FB68C3F8CF
:10179000DC2097F82E20F96802F160035B000B440F
:1017A0005B88013398B2F96802F160035B000B4477
:1017B00002465A8097F82E30FA6860335B00134473
:1017C0005A8897F82E30F96864335B000B44DB8845
:1017D0009A420FD997F82E3097F82E10FA68603396
:1017E0005B0013445888FA6801F164035B001344FA
:1017F0000246DA803B6A3B613B6983F3108800BF95
:10180000BFF34F8F00BFBFF36F8F00BF7B6A06E04F
:1018100097F82E30013387F82E3081E700231846E1
:101820003037BD4680BD80B584B000AFF860B96088
:101830007A607B680022B968F86800F005F8034612
:1018400018461037BD4680BD80B586B000AFF86041
:10185000B9603B601346FB713A68B968F868FFF7F6
:10186000D5FE03463B613B69002B0ED000237B6114
:101870007A69BB689A4208D23A697B691344FA795B
:101880001A707B6901337B61F2E73B6918461837B0
:10189000BD4680BDB0B586B000AF7860396000232A
:1018A000FB75FB7D052B00F28B803B681968FA7D88
:1018B00078681346DB009B1A9B00034414331B68B3
:1018C000994279D33B681968FA7D78681346DB0042
:1018D0009B1A9B00034414331868FA7D7C681346F6
:1018E000DB009B1A9B00234418331B881D46FA7D9E
:1018F0007C681346DB009B1A9B0023441A331B8829
:1019000003FB05F30344994256D2FA7D1346DB00EC
:101910009B1A9B007A681A443B681B68194610465C
:1019200003F02EF903461A467B6883F8C0207B68D3
:1019300093F9C030002B3DD1EFF31083BB60BB683F
:101940003B6172B600BFBFF34F8F00BFBFF36F8F15
:1019500000BF7B68D3F8DC10FA7D78681346DB00A3
:101960009B1A9B00034418331B88CA1A7B68C3F870
:10197000DC20FA7D796802F160035B000B445B8830
:10198000013B98B2796802F160035B000B440246A8
:101990005A803B69FB60FB6883F3108800BFBFF38C
:1019A0004F8F00BFBFF36F8F00BF3B6800221A60EC
:1019B000012306E0002304E0FB7D0133FB7570E7A3
:1019C000002318461837BD46B0BD80B584B000AFBF
:1019D000786039600023FB73FB7B052B24D8FA7BEE
:1019E00079681346DB009B1A9B000B4418331B8855
:1019F0001A463B68934213D3FA7B1346DB009B1ACB
:101A00009B007A681344184603F017F90346012B2C
:101A10000CBF01230023DBB2002B01D0012304E023
:101A2000FB7B0133FB73D7E7002318461037BD4615
:101A300080BD80B483B000AF78607B6893F9C0301C
:101A400018460C37BD465DF8047B704780B483B000
:101A500000AF78607B68D3F8DC3018460C37BD46A1
:101A60005DF8047B704780B483B000AF78604FF4BA
:101A7000585318460C37BD465DF8047B704780B458
:101A800083B000AF7860062318460C37BD465DF87A
:101A9000047B704780B483B000AF786039603B68E6
:101AA000052B09D879683A681346DB009B1A9B001E
:101AB0000B4418331B8800E0002318460C37BD4642
:101AC0005DF8047B704780B483B000AF7860396004
:101AD0003B68052B09D879683A681346DB009B1AE6
:101AE0009B000B441A331B8800E0002318460C3778
:101AF000BD465DF8047B704780B483B000AF78606A
:101B000039603B68052B06D87A683B6860335B0018
:101B100013445B8800E0002318460C37BD465DF88F
:101B2000047B704780B483B000AF786039603B6855
:101B3000052B06D87A683B6864335B001344DB8866
:101B400000E0002318460C37BD465DF8047B704763
:101B500080B582B000AF786039607B68012B07D117
:101B60003B684FF6FF72934202D10948FFF71BFC16
:101B70007B68002B07D13B684FF6FF72934202D17E
:101B80000348FFF738FD00BF0837BD4680BD00BFE2
:101B9000B009002080B500AF4FF6FF710120FFF7BC
:101BA000D7FF80BD80B500AF4FF6FF710020FFF773
:101BB000CFFF80BD80B483B000AF78607B68002227
:101BC0001A707B6818460C37BD465DF8047B704779
:101BD00080B584B000AFF860B9601346FB71FB6854
:101BE0001B78012B1FD0FB68BA685A60FB68FA7932
:101BF0001A7297F90730184601F0E4FD0A22022113
:101C0000F86800F02EF80A2004F08AF8002201217A
:101C1000F86800F026F800220321F86800F021F8A7
:101C2000FB6801221A70002318461037BD4680BD9C
:101C300080B584B000AFF860B9601346FB80FB68E4
:101C40001B78012B08D1BB68DBB20833DBB2FA8802
:101C50001946F86800F005F8002318461037BD460D
:101C600080BD80B584B000AF78600B46FB70134632
:101C70003B80FB783B733B881B12DBB27B733B885A
:101C8000DBB2BB737B6858687B6893F9083007F157
:101C90000C01032200F096FF0346FB73FB7B184602
:101CA0001037BD4680BD000080B582B000AF7860BF
:101CB00039607B68012B07D13B684FF6FF72934276
:101CC00002D10348FFF776FF00BF0837BD4680BD4D
:101CD0009040002080B500AF4FF6FF710120FFF764
:101CE000E3FF80BD80B483B000AF78607B680022E2
:101CF0009A607B6818460C37BD465DF8047B7047D8
:101D000080B586B000AFF860B9607A60FB687A6829
:101D10001A607B689B787B617B695B08013B5B0891
:101D20007A6913447B61114B1B684FF0FF3279696C
:101D30001846FFF778FD0246FB689A607B689B783F
:101D40005B08DBB203F00703002B01D1042200E0A3
:101D50000022FB689A81FB681B6893F900301846E3
:101D600001F030FD00BF1837BD4680BD04020020E1
:101D700080B586B000AF786039600023FB753868A5
:101D8000FFF7C0F9F86000233B613A69FB689A42AB
:101D90002DD23A683B6913441B78FB720023BB7554
:101DA0003B690133FA689A4208D03B6901333A68CB
:101DB00013441B782E2B01D10123BB75BB7DFA7D0B
:101DC000F97A786800F020F8FB7D0133FB75BB7D64
:101DD000012B02D13B6901333B617B681B689B7817
:101DE000FA7D9A420CD23B6901333B61CDE77B68B7
:101DF00058687B689B680722194600F0D0FE00E017
:101E000000BF1837BD4680BD80B582B000AF786096
:101E1000084611461A460346FB700B46BB70134634
:101E20007B70FB782F2B06D9FB78392B03D8FB78F6
:101E3000303BFB7010E0FB78BA2B02D10A23FB7019
:101E40000AE0FB78432B02D10B23FB7004E0FB7804
:101E5000462B12D10C23FB70FB780A4AD35C1A463E
:101E60007B781343002B01D0802300E00023BA7855
:101E70001946786800F008F800E000BF0837BD4652
:101E800080BD00BF0C7E000880B485B000AF7860D4
:101E90000B46FB701346BB707B689B68002B6BD0B6
:101EA0007B681B689B78BA789A4265D2BB785B08DE
:101EB000DBB29BB21A46920013449B009AB2BB78E5
:101EC0009BB203F001039BB2DB009BB213449AB2B6
:101ED0007B689B891344FB81FB89DB089BB2BB7049
:101EE000FB8903F00703002B06D17B689A68BB7857
:101EF0001344FA781A703FE07B689A68BB78134401
:101F00001A787B689968BB780B4422F00F02D2B232
:101F10001A707B689A68BB7813441B785AB2FB78B6
:101F20001B115BB2134359B27B689A68BB781344A8
:101F3000CAB21A707B689A68BB78013313441A7866
:101F40007B689968BB7801330B4402F00F02D2B270
:101F50001A707B689A68BB78013313441B785AB2B5
:101F6000FB781B015BB2134359B27B689A68BB785C
:101F700001331344CAB21A7000BF1437BD465DF86E
:101F8000047B704780B582B000AF78607B681B68C7
:101F900093F90030184601F08DFD7B681B6893F9BA
:101FA0000030184601F05AFD00BF0837BD4680BD1D
:101FB00080B483B000AF78600B46FB7000BF0C3775
:101FC000BD465DF8047B704780B483B000AF786095
:101FD0000B46FB7000BF0C37BD465DF8047B7047B5
:101FE00080B582B000AF786039607B68012B07D183
:101FF0003B684FF6FF72934202D10348FFF772FE2F
:1020000000BF0837BD4680BD9C40002080B500AFB2
:102010004FF6FF710120FFF7E3FF80BD80B483B06E
:1020200000AF78607B6800229A607B6832225A7425
:102030007B6801221A747B6818460C37BD465DF830
:10204000047B704780B582B000AF786039607B68F0
:102050003A689A603B681A687B681A603B685A68FD
:102060007B685A603B6893F90C30184601F0AAFB74
:102070007B689B689B68DBB203F00703DBB2C3F1AC
:102080000803DAB27B689A743B689B68DA087B685D
:102090005A617B685B693A68926802F00702002A1D
:1020A00001D0012200E000221A447B685A61114BE2
:1020B00018687B685B694FF0FF321946FFF7B3FB86
:1020C00002467B68DA607B685B68184600F03DFB7F
:1020D0007B685B7C1946786800F030F800217868EE
:1020E00000F046F8786800F007F800231846083733
:1020F000BD4680BD0402002080B582B000AF78608C
:102100007B6818687B68D9687B685A697B689B68BC
:1021100093F90C3000F056FD7B689B6893F90C3006
:10212000184601F0C7FC7B689B6893F90C30184691
:1021300001F094FC00BF0837BD4680BD80B582B079
:1021400000AF78600B46FB707B68FA785A747B6846
:102150001B7C002B08D17B685A687B685B7C9BB238
:102160001946104600F0DEFA00BF0837BD4680BDB4
:1021700080B582B000AF78600B46FB707B68FA7860
:102180001A747B681B7C002B09D17B685A687B68BA
:102190005B7C9BB21946104600F0C4FA05E07B68F0
:1021A0005B680021184600F0BDFA00BF0837BD4645
:1021B00080BD000080B582B000AF786039607B6878
:1021C000012B07D13B684FF6FF72934202D10348BF
:1021D000FFF724FF00BF0837BD4680BDAC4000209C
:1021E00080B500AF4FF6FF710120FFF7E3FF80BD20
:1021F00080B582B000AF786039603B689A687B68D0
:102200001A603B685A687B685A603B6893F90C20F7
:102210007B681A72786800F0B7F97B681B683A68C7
:1022200012681A603B681B6803F0C0027B68DA60C2
:1022300000BF0837BD4680BD80B485B000AFF860F0
:10224000B9607A603B60FB68DB68402B08D1FB68B3
:102250001B68BA68DA60FB681B687A689A6007E0F6
:10226000FB681B687A68DA60FB681B68BA689A606A
:10227000FB681B683A685A6000BF1437BD465DF8BA
:10228000047B704780B483B000AF786039607B68AE
:10229000DB68402B04D17B681B683A68DA6003E096
:1022A0007B681B683A689A6000BF0C37BD465DF8D2
:1022B000047B704780B483B000AF786039607B687E
:1022C000DB68402B04D17B681B683A689A6003E0A6
:1022D0007B681B683A68DA6000BF0C37BD465DF862
:1022E000047B704780B485B000AF7860396000230C
:1022F000FB607B681B683A4A93425FD0384A93423E
:102300005FD8384A934259D0364A934259D8364A10
:10231000934253D0344A934253D8344A93424DD0D7
:10232000324A93424DD8324A934244D0304A934283
:1023300047D8304A93423ED02E4A934241D82E4A43
:10234000934238D02C4A93423BD82C4A934232D005
:102350002A4A934235D82A4A934229D0284A93429E
:102360002FD8284A934223D0264A934229D8264A76
:1023700093421DD0244A934223D8244A934217D033
:10238000224A93421DD8224A93420ED0204A9342B9
:1023900017D8204A934208D01E4A934211D81E4AA9
:1023A000934202D01D4A93420BD11D4BFB6008E0C3
:1023B0001C4BFB6005E01C4BFB6002E01B4BFB6011
:1023C00000BFFB68002B05D0FB681A683B681A4306
:1023D000FB681A6000BF1437BD465DF8047B704788
:1023E000B8640240A0640240886402407064024005
:1023F0005864024040640240286402401064024075
:10240000B8600240A06002408860024070600240F4
:102410005860024040600240106002402860024064
:10242000086002400C600240086402400C640240F4
:1024300080B485B000AF786039600023BB600023B2
:10244000FB737B681B683E4A934262D03C4A9342CE
:1024500063D83C4A93425CD03A4A93425DD83A4AA8
:10246000934256D0384A934257D8384A934250D074
:10247000364A934251D8364A934246D0344A934220
:102480004BD8344A934240D0324A934245D8324ADC
:1024900093423AD0304A93423FD8304A934234D0A4
:1024A0002E4A934239D82E4A93422AD02C4A93423C
:1024B00033D82C4A934224D02A4A93422DD82A4A10
:1024C00093421ED0284A934227D8284A934218D0D4
:1024D000264A934221D8264A93420ED0244A934258
:1024E0001BD8244A934208D0224A934215D8224A44
:1024F000934202D0214A93420FD1214B1B68BB600B
:102500000BE01F4B5B68BB6007E01E4B1B68BB60AA
:1025100003E01C4B5B68BB6000BFBA683B681340BC
:10252000002B14BF01230023DBB2002B01D00123B9
:10253000FB73FB7B18461437BD465DF8047B704780
:10254000B8640240A06402408864024070640240A3
:102550005864024040640240286402401064024013
:10256000B8600240A0600240886002407060024093
:102570005860024040600240106002402860024003
:10258000006002400064024080B483B000AF786015
:102590007B681B681A460B4B9A4206D80A4B1B6B8A
:1025A000094A43F40013136305E0074B1B6B064A0B
:1025B00043F48003136300BF0C37BD465DF8047B12
:1025C000704700BF0F6402400038024080B582B0FF
:1025D00000AF78600B46FB707B6893F90830FA789F
:1025E0001146184601F0A6FC00BF0837BD4680BD65
:1025F00080B485B000AFF8600B467A60FB72FA7A5F
:1026000013465B0013445B00064A1A44FB681A60D9
:10261000FB687A685A60FB6818461437BD465DF857
:10262000047B70473C7E000880B584B000AF7860C2
:102630007B681B689B78FB737B685B68184601F0BE
:1026400095F802467B689A607B681B6893F90030B6
:10265000184601F0B7F87B685B68FA7B11461846AC
:1026600000F04EFFFB7B013B032B37D801A252F851
:1026700023F000BF852600089B260008B12600082D
:10268000C72600087B689B681B8B9AB27B689B6897
:1026900042F0680292B21A8321E07B689B681B8B30
:1026A0009AB27B689B6842F4D04292B21A8316E0D9
:1026B0007B689B689B8B9AB27B689B6842F0680240
:1026C00092B29A830BE07B689B689B8B9AB27B6883
:1026D0009B6842F4D04292B29A8300E000BF7B68CC
:1026E00058687B681B689B881A46FB7B194600F07C
:1026F00077FF7B685B68FA7B1146184600F0A2FF03
:102700007B689B68B3F844309BB27A6892686FEA42
:1027100043436FEA53439BB2A2F8443000BF1037E3
:10272000BD4680BD80B582B000AF78600B467B802F
:102730007B6858687B681B689B787A88194600F02C
:102740004FFF00BF0837BD4680BD80B582B000AFE7
:1027500078607B685A687B681B689B7819461046CE
:1027600000F070FF00BF0837BD4680BD80B582B065
:1027700000AF78607B685A687B681B689B78194655
:10278000104600F0A9FF00BF0837BD4680BD00001D
:1027900080B582B000AF786039607B68012B09D1C9
:1027A0003B684FF6FF72934204D1044A002104486B
:1027B000FFF71EFF00BF0837BD4680BD7C410020EB
:1027C000C440002080B500AF4FF6FF710120FFF735
:1027D000DFFF80BD80B483B000AF78607B681B688A
:1027E0001A687B681B6842F001021A6000BF0C3750
:1027F000BD465DF8047B704780B483B000AF78605D
:102800007B681B681A687B681B6822F001021A60EB
:1028100000BF0C37BD465DF8047B704780B582B0C1
:1028200000AF78607B685B6819467868FFF75AFDEF
:1028300000BF0837BD4680BD80B483B000AF78606C
:1028400039607B681B683A685A6000BF0C37BD4628
:102850005DF8047B704780B483B000AF78607B681C
:102860001B681A687B681B6842F480621A6000BFAC
:102870000C37BD465DF8047B704780B483B000AF71
:1028800078607B681B681A687B681B6822F480622A
:102890001A6000BF0C37BD465DF8047B704780B4FA
:1028A00083B000AF78607B681B681A687B681B6820
:1028B00042F010021A6000BF0C37BD465DF8047B81
:1028C0007047000080B483B000AF78600B46FB70A7
:1028D0007B68FA7883F820207B68FF2283F8212028
:1028E000FB78342202FB03F30B4A1A447B68DA615B
:1028F0007B68442283F84C207B68442283F84D2077
:10290000FB7806497A6841F823207B6818460C3723
:10291000BD465DF8047B704708020020744100202A
:1029200080B582B000AF78607B6800220121184634
:1029300002F01EFA7B68DB6993F90430184600F058
:1029400041FF7B68DB6993F90530184600F03AFFD8
:102950007B68DB6993F90630184600F033FF7B682B
:1029600093F82030002B02D0012B13D025E0404BF0
:102970005B6A3F4A43F4805353623D4B5B6A3C4A77
:1029800023F4805353623A4B5B6C394A43F48053CF
:10299000536412E0364B1B6A354A43F4004313621A
:1029A000334B1B6A324A23F400431362304B1B6CD7
:1029B0002F4A43F40043136400BF7B68DB69DA6885
:1029C0007B68DB699B68134343F441731A464FF6F7
:1029D000BF71786800F0ACF87B68232283F84D2043
:1029E0007B68002283F822207B6803F138027B6831
:1029F000DB69243319461046FFF7FAFB7B6803F1C5
:102A000038027B68DB691B680C3319461046FFF7F8
:102A100051FC7B6838331846FFF741FF7B68383339
:102A200006211846FFF7D2FD7B6803F124027B687C
:102A3000DB69143319461046FFF7DAFB7B6803F1B4
:102A400024027B68DB691B680C3319461046FFF7CC
:102A500019FC7B6824331846FFF721FF7B68243379
:102A600006211846FFF7B2FD00BF0837BD4680BDFE
:102A70000038024080B582B000AF78600B46FB7032
:102A80007B6893F92130B3F1FF3F1BD17B684FF096
:102A9000FF31184602F0BEF90346002B14BF012394
:102AA0000023DBB2002B00D0F0E77B68FA7883F8D4
:102AB00021207B68002283F84C2097F903301846C8
:102AC00000F0CCFF7B6893F84C30DBB21846083737
:102AD000BD4680BD80B582B000AF78600B46FB700C
:102AE0007B6893F9213097F903209A4212D17B68D1
:102AF000184602F035FA7B68FF2283F821207B68B4
:102B0000192283F84C2097F90330184600F0D2FFC1
:102B1000002309E07B6893F9213097F903209A425A
:102B200001D0472300E02F2318460837BD4680BD5B
:102B300080B485B000AFF860B9607A60FB68DB698B
:102B40001B681B889AB2FB68DB691B6822F0400295
:102B500092B21A80FB68DB691B681B889AB2BB685B
:102B60009BB2DB439BB2134099B27B689AB2FB687D
:102B7000DB691B680A4392B21A80FB68DB691B6839
:102B80001B889AB2FB68DB691B6842F0400292B274
:102B90001A8000BF1437BD465DF8047B704780B5CE
:102BA00086B002AFF860B9607A600023009300231A
:102BB0007A68B968F86800F0C6F803461846103716
:102BC000BD4680BD80B586B002AFF860B9607A605E
:102BD000FB7097F9033001930023009300237A6878
:102BE000B968F86800F083F8034618461037BD4608
:102BF00080BD80B584B002AF78600B46FB70F91CD5
:102C00000023009300230122786800F09CF803461B
:102C100018460837BD4680BD80B584B002AF7860E5
:102C20000B46FB701346BB70F91C97F902300193F9
:102C30000023009300230122786800F058F803462F
:102C400018460837BD4680BD80B586B002AFF86033
:102C5000B9607A607B680093BB6800220021F86845
:102C600000F071F8034618461037BD4680BD80B5A8
:102C700086B002AFF860B9607A60FB7097F90330F4
:102C800001937B680093BB6800220021F86800F084
:102C90002EF8034618461037BD4680BD80B584B077
:102CA00002AF78603960012300933B680022002165
:102CB000786800F048F8034618460837BD4680BDDE
:102CC00080B586B002AFF860B9601346FB7197F922
:102CD0000730019301230093BB6800220021F868AC
:102CE00000F005F8034618461037BD4680BD80B594
:102CF00088B002AFF860B9607A603B6097F9243021
:102D00001946F868FFF7B6FE0346FB75FB7D002BFE
:102D10000CBF01230023DBB2002B0FD03B6A0093D2
:102D20003B687A68B968F86800F00DF80346FB75EF
:102D300097F924301946F868FFF7CCFEFB7D18465A
:102D40001837BD4680BD80B588B000AFF860B96067
:102D50007A603B600023FB77BB68002B02D07B6866
:102D6000002B07D13B68002B02D0BB6A002B01D19E
:102D700031233DE1FB6893F84C30DBB2002B0CBFF4
:102D800001230023DBB2002B00F03181FB68DB69FB
:102D90001B681B889AB2FB68DB691B6822F0400243
:102DA00092B21A80FB68DB691B68BB61BB68002BB1
:102DB0006AD07B68002B67D0FB680D2283F84D201A
:102DC000FB683833B9681846FFF75CFAFB6838339C
:102DD00079681846FFF730FDFB6893F82230002B26
:102DE00005D1FB6838331846FFF735FD08E0FB686E
:102DF00038331846FFF741FDFB68002283F8222094
:102E0000FB6838331846FFF7E5FCFB683833184693
:102E1000FFF704FDFB68DB69DB68B3F5004F09D100
:102E2000BB691B889BB26FEA83436FEA93439AB2F4
:102E3000BB691A80BB691B889BB243F040039AB2FE
:102E4000BB691A80BB699B889BB243F002039AB2AC
:102E5000BB699A80F86800F053F90346FB77BB69B9
:102E60001B889BB223F040039AB2BB691A80BB69EE
:102E70009B889BB223F002039AB2BB699A80FB68DD
:102E800038331846FFF7B8FCFB7F002B40F08E80EC
:102E90003B68002B00F08A80BB6A002B00F0868024
:102EA000BB691B899BB203F00103002B14BF0123F4
:102EB0000023DBB2002B04D0BB699B899BB27B61F2
:102EC000EEE7FB680E2283F84D20FF237B61FB6851
:102ED000383307F1140211461846FFF7D3F9FB689F
:102EE0003833B96A1846FFF7A7FCFB683833184631
:102EF000FFF7C3FCFB6838331846FFF76BFCFB6831
:102F000038331846FFF78AFCFB68243339681846C3
:102F1000FFF7D0F9FB682433B96A1846FFF78CFC39
:102F2000FB6824331846FFF755FCFB68243318462A
:102F3000FFF774FCFB68DB69DB68B3F5004F0ED16B
:102F4000BB691B889BB21BB2C3F30D031BB26FEAB4
:102F500043436FEA53431BB29AB2BB691A80BB6901
:102F60001B889BB243F040039AB2BB691A80BB69CD
:102F70009B889BB243F003039AB2BB699A80F868BE
:102F800000F0BEF80346FB77BB699B889BB223F039
:102F900003039AB2BB699A80FB6824331846FFF793
:102FA0002BFCFB6838331846FFF726FCBB691B88EF
:102FB0009BB223F040039AB2BB691A80FB68DB69BD
:102FC000DB68B3F5004F07D1BB691B889BB2C3F325
:102FD0000D039AB2BB691A80FB68232283F84D2047
:102FE000FB7F1D2B01D14123FB77FB7F00E00C23EE
:102FF00018462037BD4680BD80B483B000AF7860EE
:103000007B68012283F8222000BF0C37BD465DF8A3
:10301000047B704780B582B000AF78607B68642223
:1030200083F84E207B68DB691B681B899BB203F029
:103030000203002B0CBF01230023DBB2002B0ED0B8
:1030400002F0C0FD7B6893F84E30DBB2002B0CBF62
:1030500001230023DBB2002BE4D0222342E07B6873
:10306000642283F84E207B68DB691B681B899BB256
:1030700003F00103002B0CBF01230023DBB2002B64
:103080000ED002F09FFD7B6893F84E30DBB2002B30
:103090000CBF01230023DBB2002BE4D0222321E06C
:1030A0007B68642283F84E207B68DB691B681B8980
:1030B0009BB203F08003002B14BF01230023DBB27B
:1030C000002B0ED002F07EFD7B6893F84E30DBB211
:1030D000002B0CBF01230023DBB2002BE4D0222302
:1030E00000E0002318460837BD4680BD80B483B099
:1030F00000AF786000BF0C37BD465DF8047B7047B9
:1031000080B584B000AF78607B68DB691B68FB60CA
:1031100002F0DEFD0346BB607B6893F84D30DBB206
:103120000F2B14BF01230023DBB2002B16D002F0BB
:10313000CFFD0246BB68D31AB3F57A7F8CBF01235B
:103140000023DBB2012B0CBF01230023DBB2002BD9
:1031500001D041232AE002F035FDDDE702F0B8FDA1
:103160000346BB60FB681B899BB203F08003002B06
:1031700014BF01230023DBB2002B16D002F0A8FD00
:103180000246BB68D31AB3F57A7F8CBF01230023B4
:10319000DBB2012B0CBF01230023DBB2002B01D0DB
:1031A000412303E002F00EFDDCE72323184610372D
:1031B000BD4680BD80B584B000AF0346FB71FB798E
:1031C000084A52F82330FB60FB680F2283F84D2039
:1031D000FB6838331846FFF721FB00BF1037BD46A8
:1031E00080BD00BF7441002080B584B000AF0346AD
:1031F000FB71FB79084A52F82330FB60FB680F2211
:1032000083F84D20FB6824331846FFF707FB00BF07
:103210001037BD4680BD00BF7441002080B582B02C
:1032200000AF786039607B68012B0CD13B684FF6AA
:10323000FF72934207D100210548FFF743FB0121AC
:103240000448FFF73FFB00BF0837BD4680BD00BF05
:10325000D44000202441002080B500AF4FF6FF711C
:103260000120FFF7DBFF80BD80B483B000AF786042
:103270000B46FB70FB785B01074A1A447B689A6037
:103280007B689B681A687B685A607B6818460C37B5
:10329000BD465DF8047B7047447E000880B582B06F
:1032A00000AF78607B689B689B68203B1A687B68EE
:1032B0009B685B68796889688968203913430B606B
:1032C0007B689B689B68203B1A687B689B685B688F
:1032D000DB43796889688968203913400B607B6813
:1032E0009B689B6819687B689B685A687B689B68C9
:1032F0009B680A431A607B689B685B699AB27B682B
:103300005B68013A92B21A857B685B68B3F1804FC3
:103310000AD07B685B682C4A934205D07B689A6828
:103320007B689B6892699A617B689A687B685B6836
:103330009269DA627B689B689A697B685B68013A8C
:103340005A627B689B681B699AB27B685B6842F033
:10335000800292B21A807B689B68DA6940F201139E
:103360001340002B0DD07B685B681B8A9AB27B6888
:103370005B6822F0010292B21A827B685B680122CC
:103380009A817B685B689B8999B27B689B68DB69E3
:103390009AB27B685B680A4392B29A817B689B68A9
:1033A00093F90C307F2B0AD07B689B6893F90C2033
:1033B0007B689B685B7B1946104600F0BBFD00BF35
:1033C0000837BD4680BD00BF000C004080B483B00C
:1033D00000AF786039607B683A681A6000BF0C37CC
:1033E000BD465DF8047B704780B483B000AF786061
:1033F0007B685B681B889AB27B685B6842F001025D
:1034000092B21A8000BF0C37BD465DF8047B70474E
:1034100080B483B000AF78607B685B681B889AB229
:103420007B685B6822F0010292B21A807B685B685D
:1034300000225A627B685B681B889AB27B685B6873
:1034400042F0010292B21A8000BF0C37BD465DF80F
:10345000047B704780B483B000AF78607B685B68A2
:103460001B889AB27B685B6822F0010292B21A80D4
:1034700000BF0C37BD465DF8047B704780B483B055
:1034800000AF786039607B685B681B889AB27B68A4
:103490005B6822F0010292B21A807B685B683A682E
:1034A000DA627B685B6800225A627B685B681B8813
:1034B0009AB27B685B6842F0010292B21A8000BF48
:1034C0000C37BD465DF8047B704780B483B000AF15
:1034D00078607B685B68DB6A18460C37BD465DF830
:1034E000047B704780B483B000AF78607B685B6812
:1034F0005B6A18460C37BD465DF8047B70470000D8
:1035000080B483B000AF78600B46FB70FB78013B62
:10351000032B5DD801A252F823F000BF2D3500081F
:10352000573500087F350008A93500087B685B68BF
:103530001B8C9AB27B685B6822F00F0292B21A84ED
:103540007B685B681B8B9AB27B685B6822F0FF022A
:1035500092B21A833DE07B685B681B8C9AB27B68F1
:103560005B6822F0F00292B21A847B685B681B8B66
:103570009AB27B685B68D2B292B21A8329E07B6808
:103580005B681B8C9AB27B685B6822F4706292B2B3
:103590001A847B685B689B8B9AB27B685B6822F0BD
:1035A000FF0292B29A8314E07B685B681B8C9AB22C
:1035B0007B685B68C2F30B0292B21A847B685B681B
:1035C0009B8B9AB27B685B68D2B292B29A8300E01E
:1035D00000BF00BF0C37BD465DF8047B704700BFDD
:1035E00080B485B000AFF8600B467A60FB72FB7A5E
:1035F000013B032B1ED801A252F823F00D36000820
:1036000017360008213600082B360008FB685B6877
:103610007A685A630FE0FB685B687A689A630AE02D
:10362000FB685B687A68DA6305E0FB685B687A6868
:103630001A6400E000BF00BF1437BD465DF8047B8C
:10364000704700BF80B483B000AF78600B46FB705A
:10365000FB78013B032B37D801A252F823F000BFBF
:1036600071360008873600089D360008B33600081A
:103670007B685B681B8C9AB27B685B6842F00102D6
:1036800092B21A8421E07B685B681B8C9AB27B68DB
:103690005B6842F0100292B21A8416E07B685B68A5
:1036A0001B8C9AB27B685B6842F4807292B21A8477
:1036B0000BE07B685B681B8C9AB27B685B6842F4AA
:1036C000805292B21A8400E000BF00BF0C37BD46A2
:1036D0005DF8047B704700BF80B483B000AF7860B2
:1036E0000B46FB70FB78013B032B37D801A252F845
:1036F00023F000BF053700081B37000831370008EA
:10370000473700087B685B681B8C9AB27B685B68F4
:1037100022F0010292B21A8421E07B685B681B8C64
:103720009AB27B685B6822F0100292B21A8416E0AB
:103730007B685B681B8C9AB27B685B6822F4807242
:1037400092B21A840BE07B685B681B8C9AB27B6830
:103750005B6822F4805292B21A8400E000BF00BF7E
:103760000C37BD465DF8047B704700BF80B483B062
:1037700000AF78607B685B6818460C37BD465DF823
:10378000047B704780B582B000AF786039607B6899
:10379000012B08D13B684FF6FF72934203D1002101
:1037A0000348FFF761FD00BF0837BD4680BD00BF7D
:1037B0007C41002080B500AF4FF6FF710120FFF77C
:1037C000E1FF80BD80B58CB002AF0346FB7197F975
:1037D000072013465B001344DB00114A13447B624D
:1037E0007B6A1B683B627B6A5B68FB617B6A9B68E8
:1037F000BB617B6ADB687B617B6A1B693B617B6ABF
:103800005B69FB60FB6801933B6900937B69BA6964
:10381000F969386A00F006F800BF2837BD4680BD58
:10382000647E000880B586B000AFF860B9607A6049
:103830003B60FB68002B00F0A280F86800F088FA7B
:10384000BB685B007B61FB689A6803217B6901FAB6
:1038500003F3DB431A40FB689A60FB689A68396A95
:103860007B6901FA03F31A43FB689A607B68012BBA
:1038700003D07B68022B13D043E07B6A002B07D177
:103880000122BB6802FA03F39AB2FB685A8338E05C
:103890000122BB6802FA03F39AB2FB681A8330E094
:1038A000BB68072B15D8FB681A6ABB689B000F2101
:1038B00001FA03F3DB431A40FB681A62FB681A6AD9
:1038C000BB689B00796A01FA03F31A43FB681A622A
:1038D00016E0FB685A6ABB68083B9B000F2101FA9F
:1038E00003F3DB431A40FB685A62FB685A6ABB6801
:1038F000083B9B00796A01FA03F31A43FB685A629A
:1039000000BFFB68DA6803217B6901FA03F3DB433C
:103910001A40FB68DA60FB68DA683B685B0803F012
:1039200003017B6901FA03F31A43FB68DA60FB6861
:103930005A680121BB6801FA03F3DB431A40FB68B4
:103940005A60FB685A683B6803F00101BB6801FAE2
:1039500003F31A43FB685A60FB681A6803217B690A
:1039600001FA03F3DB431A40FB681A60FB681A682C
:1039700079687B6901FA03F31A43FB681A6000BF98
:103980001837BD4680BD000080B485B000AF034647
:10399000FB7197F90720134913465B001344DB00C2
:1039A0000B441B68FB60FB68002B15D097F90720C0
:1039B0000C4913465B001344DB000B4404331B68C3
:1039C0005B00BB60FB681A680321BB6801FA03F364
:1039D000DB431A40FB681A6000BF1437BD465DF830
:1039E000047B7047647E000880B485B000AF034656
:1039F000FB7197F90720184913465B001344DB005D
:103A00000B441B68FB60FB68002B1ED097F9072056
:103A1000114913465B001344DB000B4404331B685D
:103A20005B00BB60FB681A680321BB6801FA03F303
:103A3000DB431A40FB681A60FB681A680121BB6807
:103A400001FA03F31A43FB681A6000BF1437BD463E
:103A50005DF8047B704700BF647E000880B485B0C9
:103A600000AF0346FB7197F90720114913465B002D
:103A70001344DB000B441B68FB60FB68002B11D078
:103A800097F907200A4913465B001344DB000B44F7
:103A900004331B68BB600122BB6802FA03F39AB2CD
:103AA000FB685A8300BF1437BD465DF8047B70473E
:103AB000647E000880B485B000AF0346FB7197F9BF
:103AC0000720114913465B001344DB000B441B68BD
:103AD000FB60FB68002B11D097F907200A491346B9
:103AE0005B001344DB000B4404331B68BB60012202
:103AF000BB6802FA03F39AB2FB681A8300BF14375B
:103B0000BD465DF8047B7047647E000880B485B0D4
:103B100000AF0346FB7197F90720124913465B007B
:103B20001344DB000B441B68FB60FB68002B13D0C5
:103B300097F907200B4913465B001344DB000B4445
:103B400004331B68BB60FB685B690121BA6801FA3A
:103B500002F25A40FB685A6100BF1437BD465DF857
:103B6000047B7047647E000880B582B000AF0346D6
:103B70000A46FB711346BB71BB79002B05D197F93F
:103B800007301846FFF76AFF04E097F90730184638
:103B9000FFF790FF00BF0837BD4680BD80B485B0F9
:103BA00000AF0346FB7197F90720124913465B00EB
:103BB0001344DB000B441B68BB600023FB60BB6845
:103BC000002B10D0BB68196997F9072009481346E4
:103BD0005B001344DB00034404331B68012202FA38
:103BE00003F30B40FB60FB6818461437BD465DF8D5
:103BF000047B7047647E000880B582B000AF034646
:103C0000FB7197F907301846FFF7C8FF0346002BF2
:103C100014BF01230023DBB218460837BD4680BD20
:103C200080B485B000AF0346FB7197F907201749B0
:103C300013465B001344DB000B441B68FB60FB680E
:103C4000002B1CD097F90720104913465B00134442
:103C5000DB000B4404331B68BB60FB685B6901211C
:103C6000BA6801FA02F21340002B0CBF01230023B3
:103C7000DBB2002B01D0002302E0012300E000238F
:103C800018461437BD465DF8047B7047647E000813
:103C900080B485B000AF0346FB7197F907200A494D
:103CA00013465B001344DB000B441B68FB60FB689E
:103CB000002B01D0012300E0002318461437BD4635
:103CC0005DF8047B704700BF647E000880B588B053
:103CD00000AFF860B9607A603B601C4AFB6852F83C
:103CE0002330FB610122BB6802FA03F3BB61BB68AE
:103CF0005B007B61F86900F02BF87B68012B0BD12E
:103D00003B68002B04D1BB699AB2FB695A8303E07C
:103D1000BB699AB2FB691A83FB691A6803217B6944
:103D200001FA03F3DB431A4079687B6901FA03F374
:103D30001A43FB691A60FB691A69BB6822FA03F32C
:103D400003F0010318462037BD4680BD70020020F5
:103D500080B485B000AF78607B6803F47053FB607B
:103D6000FB689B0AFB600122FB6802FA03F3FB601D
:103D7000054B1A6B0449FB6813430B6300BF1437F0
:103D8000BD465DF8047B70470038024080B485B0C2
:103D900000AF78607B6803F00703FB600C4BDB68C7
:103DA000BB60BA684FF6FF031340BB60FB681A02A2
:103DB000BB68134343F0BF6343F40033BB60044A62
:103DC000BB68D36000BF1437BD465DF8047B704705
:103DD00000ED00E080B400AF044BDB681B0A03F089
:103DE00007031846BD465DF8047B704700ED00E010
:103DF00080B483B000AF0346FB7197F9073003F03E
:103E00001F03012202FA03F1054A97F907305B0903
:103E100042F8231000BF0C37BD465DF8047B7047A5
:103E200000E100E080B483B000AF03463960FB716D
:103E300097F90730002B0BDA3B68DAB20C49FB79B3
:103E400003F00F03043B1201D2B20B441A7609E0CF
:103E50003B68DAB2074997F907301201D2B20B4436
:103E600083F8002300BF0C37BD465DF8047B704724
:103E700000ED00E000E100E080B489B000AFF86040
:103E8000B9607A60FB6803F00703FB61FB69C3F16B
:103E90000703042B28BF0423BB61FB690433062BF3
:103EA00002D9FB69033B00E000237B610122BB696F
:103EB00002FA03F3013B1A46BB681A407B699A4039
:103EC00001217B6901FA03F3013B19467B680B4032
:103ED000134318462437BD465DF8047B704780B510
:103EE00000AF0320FFF752FF62B600BF80BD80B570
:103EF00082B000AF03463960FB713B68002B15D0E0
:103F00003B6818683B681B7919463B685B791A4621
:103F1000FFF7B2FF024697F9073011461846FFF740
:103F200081FF97F907301846FFF762FF00BF083797
:103F3000BD4680BD80B586B000AF03460A46FB7122
:103F40001346BB71FFF746FF78617B69FB60002376
:103F50007B74BB793B7407F10C0297F9073011466B
:103F60001846FFF7C4FF00BF1837BD4680BD0000EC
:103F700080B400AF72B61C4B5B6C1B4A43F48043A9
:103F80005364194B1B6C184A43F080531364174B4E
:103F90001B6823F44043154A43F480431360144BD9
:103FA000D3F88830124A43F47003C2F888300E4BBD
:103FB0001B680D4A43F0010313600B4B4FF414428E
:103FC0009A60094B1B68084A23F086731360064BFE
:103FD0000022DA60064B4FF000629A6000BFBD46D7
:103FE0005DF8047B704700BF00380240007000405D
:103FF00000ED00E080B500AF03F06CFB012001F0A4
:1040000029FE00BF03F098FB00BF80BD80B500AF64
:10401000012001F01FFE00BF80BD80B485B000AF5D
:10402000F860B9607A60FB68BA681A60FB687A6801
:104030005A60FB6818461437BD465DF8047B70472C
:1040400080B584B000AF786039603968786800F076
:10405000D2F8F8603968786800F0E4F80346FB723B
:10406000FB68002B08D0FB681A78FB7A1340DBB2A0
:10407000002B01D0012300E0002318461037BD4675
:1040800080BD80B586B000AFF860B9601346FB71A3
:10409000B968F86800F0AFF87861B968F86800F0BE
:1040A000C1F80346FB747B69002B16D0FB79002B0B
:1040B0000CD17B691B785AB297F91330DB435BB2A2
:1040C00013405BB2DAB27B691A7006E07B691A783A
:1040D000FB7C1343DAB27B691A7000BF1837BD4608
:1040E00080BD000080B586B000AFF860B9607A602E
:1040F0003B60B968F86800F07EF87861BB68DBB2B5
:1041000003F00703FB74FB7C264AD35CBB74BB7CC7
:104110007B747B691A787B7C1340DAB27B691A70F6
:104120007B691B787B747B691B785AB27B681B7830
:104130001946FB7C41FA03F35BB213435BB2DAB27C
:104140007B691A70BB7C002B21D0BB7C7B747B69A4
:1041500001337B617B691B785AB297F91130DB43DD
:104160005BB213405BB2DAB27B691A707B691B7871
:104170005AB27B681B781946FB7CC3F1080301FA2D
:1041800003F35BB213435BB2DAB27B691A703B682C
:10419000083B3B603B68072B00D9B8E700BF1837E6
:1041A000BD4680BD547F000880B485B000AF786004
:1041B0000B46FB707B685B68DB080133BB60002348
:1041C000FB60FA68BB689A420FD2FB78002B01D1E2
:1041D000002100E0FF217B681A68FB6813440A464F
:1041E0001A70FB680133FB60EBE700BF1437BD4674
:1041F0005DF8047B704780B483B000AF78603960AD
:104200007B685B683A689A4205D27B681A683B68AB
:10421000DB08134400E0002318460C37BD465DF868
:10422000047B704780B483B000AF786039607B68EE
:104230005B683A689A4207D23B6803F007030122A1
:1042400002FA03F3DBB200E0002318460C37BD4648
:104250005DF8047B704780B483B000AF78600B4694
:10426000FB707B68FA781A707B6800225A607B6862
:1042700000229A6000BF0C37BD465DF8047B704792
:1042800080B582B000AF78607B6800221A706FF052
:104290000C01786800F004F800BF0837BD4680BD07
:1042A00080B582B000AF78600B46FB7000BF97F915
:1042B00003301946786800F0A5F80346002BF6D1C4
:1042C00001F05CFB00BF0837BD4680BD80B586B0FD
:1042D00000AFF8600B467A60FB72304B1B78DBB2A4
:1042E000002B02D0FC23FB7551E02D4B1B78DBB279
:1042F000002B02D0FD23FB7549E02A4B1B681846B2
:1043000001F012FB274B1B681B7BDBB25AB297F9FB
:104310000B3003F00F035BB213435AB2214B1B68FF
:10432000D2B21A731F4B1B68FA685A61FB68002BE4
:1043300008D0FB681A1D1B4B1B681C33194610461E
:1043400000F03CFA7B68002B1BD07B68B3F1FF3F89
:1043500017D0154B1968134B1B687A680A441A6109
:10436000104B1B681B7BDAB20E4B1B6842F020021D
:10437000D2B21A730B4B1B68283319460B4800F056
:104380001DFA01F0FBFA074B1B689B68FB7597F958
:10439000173018461837BD4680BD00BFE8410020E1
:1043A000A8410020E441002098410020A0410020C5
:1043B00080B586B000AF7860EFF31083BB60BB6858
:1043C0007B6172B600BFBFF34F8F00BFBFF36F8F2B
:1043D00000BF7A680F210020FFF778FF0346FB74C7
:1043E0007B69FB60FB6883F3108800BFBFF34F8FCE
:1043F00000BFBFF36F8F00BF97F91330184618370F
:10440000BD4680BD80B584B000AF78600B46FB70C0
:104410007B685B68002B03D07B685B689B6800E06F
:104420000023FB60FB68002B05D097F90330194689
:10443000F86801F025FFFB6818461037BD4680BDBF
:1044400080B485B000AF78607B68002B1ED07B689D
:10445000FB60FB685B08FA681343FB60FB689B0822
:10446000FA681343FB60FB681B09FA681343FB609F
:10447000FB681B0AFA681343FB60FB681B0CFA68B5
:104480001343FB60FB685B08013300E00023184620
:104490001437BD465DF8047B704780B588B000AF27
:1044A000786039607B68BB61BB695B697B61BB69B4
:1044B0009B693B613B68FB603B680433BB607B6985
:1044C000DA683B695B681A40BB681B68DB431340D2
:1044D000FB613B691B7803F00303012B06D13B69A9
:1044E0005B68FA699A4201D00023FB613B691B7843
:1044F00003F00303022B06D1FB69002B03D0F869FC
:10450000FFF79EFFF861FB69002B24D03B699B6895
:10451000FA691A60FB681A687B691969FB690B40C4
:104520001A43FB681A603B691B785BB2002B05DA03
:10453000FB681A68FB691A43FB681A60BB681A6853
:104540007B691969FB690B401A43BB681A6000213B
:10455000B86901F095FE00BF2037BD4680BD80B52B
:1045600088B000AFF860B9607A60FB68002B02D1B8
:10457000F223FB772BE0EFF310837B617B69BB6158
:1045800072B600BFBFF34F8F00BFBFF36F8F00BF86
:10459000FB681B78002B02D0F223FB770BE0052190
:1045A000F868FFF758FEFB68BA68DA60FB687A685B
:1045B0001A610023FB77BB693B613B6983F3108879
:1045C00000BFBFF34F8F00BFBFF36F8F00BF97F9DE
:1045D0001F3018462037BD4680BD000080B58CB026
:1045E00000AFF860B9607A60FB70FB68002B03D104
:1045F000F22387F82F307FE0EFF310837B627B6A32
:10460000BB6272B600BFBFF34F8F00BFBFF36F8FA7
:1046100000BFFB681B78052B03D0F22387F82F30EF
:1046200054E0FB68DA68BB6813403B61FB7803F039
:104630000303012B05D13B69BA689A4201D00023DC
:104640003B61FB7803F00303022B08D13B69002B8D
:1046500005D03B691846FFF7F3FE03463B613B6913
:10466000002B18D0FB68DA68FB6819693B690B40BE
:10467000DB431A40FB68DA6097F90330002B06DA57
:10468000FB68DA683B69DB431A40FB68DA600023A9
:1046900087F82F301AE0BB6B002B03D1F82387F883
:1046A0002F3013E0BB68BB61FB783B7507F110034B
:1046B000FB61144B1B6807F114029A61BA6B052168
:1046C000F868FFF703FE034687F82F30BB6A3B62AA
:1046D0003B6A83F3108800BFBFF34F8F00BFBFF367
:1046E0006F8F00BF97F92F30002B05D17B68002B0F
:1046F00002D03A697B681A6097F92F301846303734
:10470000BD4680BDE441002080B58AB000AFF860AE
:10471000B9607A60FB68002B03D1F22387F8273059
:1047200043E0EFF31083FB61FB693B6272B600BFAD
:10473000BFF34F8F00BFBFF36F8F00BFFB681B78C5
:10474000052B03D0F22387F8273022E0FB68DA68D4
:10475000FB68D968BB6859407B680B405A40FB68CE
:10476000DA6000233B6100237B61FB68043307F1BF
:1047700010021149184600F0A9F8FB68DA683B6995
:10478000DB431A40FB68DA6001F0F8F8002387F891
:1047900027303B6ABB61BB6983F3108800BFBFF35E
:1047A0004F8F00BFBFF36F8F00BF97F927301846B8
:1047B0002837BD4680BD00BF9B44000880B483B04D
:1047C00000AF786039607B685A683B681A603B6864
:1047D00000225A603B681B68002B03D03B681B68B3
:1047E0003A685A607B683A685A607B681B68002B9D
:1047F00002D17B683A681A6000BF0C37BD465DF88D
:10480000047B704780B483B000AF786039607B6808
:104810001B683A689A4203D13B685A687B681A6001
:104820007B685B683A689A4203D13B681A687B6888
:104830005A603B681B68002B04D03B681B683A68D1
:1048400052685A603B685B68002B04D03B685B6829
:104850003A6812681A603B6800221A603B680022BE
:104860005A6000BF0C37BD465DF8047B704780B4CA
:1048700083B000AF78607B681B68002B20D07B681A
:104880001B685B68002B1BD07B681B687A685268CA
:104890001A607B685B687A6812685A607B681B687C
:1048A0005A687B681A607B685B685A687B685A60E4
:1048B0007B681B6800221A607B685B6800225A6074
:1048C00000BF0C37BD465DF8047B704780B586B0ED
:1048D00000AFF860B9607A60FB681B687B610AE032
:1048E0007B695B683B617B699A68BB687968104645
:1048F00098473B697B617B69002BF1D100BF00BF0A
:104900001837BD4680BD80B485B000AF786039608F
:104910007B685B693A689A4202D2FE23FB7341E0EE
:104920007B685B697A68128B11467A68528B02FB4E
:1049300001F213443A689A4202D3FE23FB7331E03A
:104940007B685B693A68D31A9BB27A68128BB3FBB7
:10495000F2F102FB01F29B1A9BB2002B02D0FE2364
:10496000FB731FE07B681A8A7B685B8B9A4202D1DB
:10497000F923FB7316E07B68DB68BB6002E0BB6871
:104980001B68BB60BB68002B03D0BA683B689A42C7
:10499000F5D1BA683B689A4202D16FF0060300E095
:1049A0000023FB7397F90F3018461437BD465DF8A6
:1049B000047B704780B58AB000AFF860B9601146DB
:1049C0001A460B46FB801346BB80FB68002B03D1C5
:1049D000F22387F8273077E0BB68002B03D1FF2351
:1049E00087F8273070E0FB88032B03D8FE2387F875
:1049F000273069E0BB6803F00303002B03D0FE23DC
:104A000087F8273060E0FB8803F003039BB2002B9C
:104A100003D0FE2387F8273056E0BB88002B03D154
:104A2000FE2387F827304FE0EFF31083BB61BB69AB
:104A3000FB6172B600BFBFF34F8F00BFBFF36F8F34
:104A400000BFFB681B78002B03D0F22387F82730C8
:104A50002EE00621F868FFF7FEFB00233B62FB68AF
:104A6000BA685A610023BB840BE0BB683A6A1A60DB
:104A7000BB683B62FB88BA681344BB60BB8C0133E4
:104A8000BB84BA8CBB88013B9A42EEDBBB683A6AB6
:104A90001A60FB68BA68DA60FB68BA881A82FB6839
:104AA000FA881A83FB68BA885A83002387F827306C
:104AB000FB697B617B6983F3108800BFBFF34F8F75
:104AC00000BFBFF36F8F00BF97F927301846283714
:104AD000BD4680BD80B586B000AF786039607B6828
:104AE000002B02D10023BB6043E0EFF310833B6156
:104AF0003B697B6172B600BFBFF34F8F00BFBFF34E
:104B00006F8F00BF7B681B78062B02D00023BB6031
:104B100023E07B68DB68002B0DD07B68DB68BB6023
:104B2000BB681A687B68DA607B681B8A013B9AB2B3
:104B30007B681A8211E03B68002B02D10023BB6026
:104B40000BE00023BB600D4B1B6807F108029A6164
:104B50003A6806217868FFF7B9FB7B69FB60FB6860
:104B600083F3108800BFBFF34F8F00BFBFF36F8F79
:104B700000BFBB6818461837BD4680BDE441002021
:104B800080B588B000AF786039607B68002B02D1B7
:104B9000F223FB774BE03B68002B02D1FE23FB772F
:104BA00045E0EFF310833B613B69BB6172B600BF28
:104BB000BFF34F8F00BFBFF36F8F00BF7B681B78C1
:104BC000062B02D0F223FB7725E039687868FFF7DF
:104BD0009AFE0346FB7797F91F30002B1BD100216B
:104BE0007868FFF70FFC78617B69002B06D07B6942
:104BF0009B693A681A6000F0C1FE0CE07B68DA68D5
:104C00003B681A607B683A68DA607B681B8A01330C
:104C10009AB27B681A82BB69FB60FB6883F31088D9
:104C200000BFBFF34F8F00BFBFF36F8F00BF97F977
:104C30001F3018462037BD4680BD80B487B000AF16
:104C400078607B68002B02D10023FB7526E0EFF330
:104C50001083FB60FB683B6172B600BFBFF34F8FF0
:104C600000BFBFF36F8F00BF7B681B78062B02D09D
:104C70000023FB7506E07B68DB68002B14BF012373
:104C80000023FB753B69BB60BB6883F3108800BFE2
:104C9000BFF34F8F00BFBFF36F8F00BFFB7D184680
:104CA0001C37BD465DF8047B704780B487B000AF09
:104CB00078607B68002B02D10023FB8222E0EFF3B7
:104CC0001083FB60FB683B6172B600BFBFF34F8F80
:104CD00000BFBFF36F8F00BF7B681B78062B02D02D
:104CE0000023FB8202E07B681B8AFB823B69BB607E
:104CF000BB6883F3108800BFBFF34F8F00BFBFF3C3
:104D00006F8F00BFFB8A18461C37BD465DF8047BD9
:104D1000704780B485B000AF786039607B68FB6015
:104D20003B68BB60BB681A78FB681B799A4203D268
:104D3000FB681A79BB681A7000BF1437BD465DF86E
:104D4000047B704780B584B000AF78600023FB73AC
:104D50007B68043307F10F0204491846FFF7B6FDDC
:104D6000FB7B18461037BD4680BD00BF134D0008C1
:104D700080B586B000AF78600B46FB701346BB7001
:104D80007B68002B02D1F223FB753DE0FB78002B02
:104D900005D0FB78012B02D0FE23FB7534E0EFF346
:104DA0001083FB60FB683B6172B600BFBFF34F8F9F
:104DB00000BFBFF36F8F00BF7B681B78002B02D052
:104DC000F223FB7514E003217868FFF744FA7B684F
:104DD0000022DA607B68FA781A747B6800225A61D4
:104DE0007B68BA781A767B6800225A760023FB75B6
:104DF0003B69BB60BB6883F3108800BFBFF34F8F74
:104E000000BFBFF36F8F00BF97F9173018461837F0
:104E1000BD4680BD80B586B000AF786039607B68E4
:104E2000002B02D1F223FB758FE04B4B1B78DBB2DA
:104E3000002B02D0FC23FB7587E0EFF31083FB60AF
:104E4000FB683B6172B600BFBFF34F8F00BFBFF37B
:104E50006F8F00BF7B681B78032B02D0F223FB759A
:104E600067E07B68DB68002B25D17B685B695A1C97
:104E70007B685A61394B1A687B68DA60374B1B686C
:104E80001B79DAB27B685A767B681B7E002B0FD0C9
:104E9000324B1B681B79DAB27B681B7E9A4207D2C1
:104EA0002E4B1A687B681B7E1946104601F026FAC5
:104EB0000023FB753DE07B68DA68284B1B689A424B
:104EC00013D17B681B7C012B0CD17B685B69B3F130
:104ED000FF3F07D07B685B695A1C7B685A610023DF
:104EE000FB7526E0F923FB7523E07B681B7E002B16
:104EF00012D17B68DB681A79184B1B681B79DBB20F
:104F00009A4209D27B68DA68144B1B681B79DBB2C2
:104F10001946104601F0F2F93B68002B02D1F82344
:104F2000FB7506E03A6802217868FFF7CFF903467F
:104F3000FB753B69BB60BB6883F3108800BFBFF3A0
:104F40004F8F00BFBFF36F8F00BF97F91730184620
:104F50001837BD4680BD00BFE8410020E441002075
:104F600080B588B000AF78607B68002B02D1F22357
:104F7000FB7787E0464B1B78DBB2002B02D0FC238B
:104F8000FB777FE0EFF31083FB60FB68BB6172B6D9
:104F900000BFBFF34F8F00BFBFF36F8F00BF7B68B1
:104FA0001B78032B02D0F223FB775FE07B68DB6882
:104FB000002B02D1FA23FB7758E07B68DA68354B87
:104FC0001B689A4202D0F723FB774FE07B685B694E
:104FD000012B44D17B68DA687B685B7E19461046FA
:104FE00001F08CF900217868FFF70CFA78617B6991
:104FF000002B2BD07B687A69DA607B691A797B6831
:105000005A767B681B7E002B0CD07B691A797B68F3
:105010001B7E9A4220D27B681B7E1946786901F07C
:105020006DF919E07B685B68002B15D07868FFF795
:1050300089FE0346FB747B691B79FA7C9A420BD983
:10504000FB7C1946786901F059F905E07B6800227C
:105050005A617B680022DA6000F090FC04E07B6813
:105060005B695A1E7B685A610023FB77BB69BB6092
:10507000BB6883F3108800BFBFF34F8F00BFBFF33F
:105080006F8F00BF97F91F3018462037BD4680BD8F
:10509000E8410020E441002080B487B000AF786090
:1050A0007B68002B02D10023FB7526E0EFF3108311
:1050B000FB60FB683B6172B600BFBFF34F8F00BF60
:1050C000BFF36F8F00BF7B681B78032B02D00023D8
:1050D000FB7506E07B68DB68002B14BF012300230F
:1050E000FB753B69BB60BB6883F3108800BFBFF3EF
:1050F0004F8F00BFBFF36F8F00BFFB7D18461C377B
:10510000BD465DF8047B704780B487B000AF78601F
:105110007B68002B02D100237B6122E0EFF3108338
:10512000FB60FB683B6172B600BFBFF34F8F00BFEF
:10513000BFF36F8F00BF7B681B78032B02D0002367
:105140007B6102E07B68DB687B613B69BB60BB68BD
:1051500083F3108800BFBFF34F8F00BFBFF36F8F83
:1051600000BF7B6918461C37BD465DF8047B70475D
:1051700080B582B000AF786039607B68DA687B68A0
:105180001B6A7968097C01FB03F3D0187B681B7CE0
:105190001A46396802F0E8FB7B681B6A01337A68BB
:1051A0005269B3FBF2F102FB01F29A1A7B681A62B0
:1051B0007B689B695A1C7B689A6100BF0837BD46B3
:1051C00080BD80B582B000AF786039607B681B6AB3
:1051D000002B03D07B681B6A013B01E07B685B69A5
:1051E0007A6813627B68DA687B681B6A7968097C75
:1051F00001FB03F3D0187B681B7C1A46396802F068
:10520000B3FB7B689B695A1C7B689A6100BF0837B7
:10521000BD4680BD80B582B000AF786039607B68E4
:10522000DA687B68DB697968097C01FB03F3D118D4
:105230007B681B7C1A46386802F096FB7B68DB694A
:1052400001337A685269B3FBF2F102FB01F29A1A58
:105250007B68DA617B689B695A1E7B689A6100BF34
:105260000837BD4680BD80B483B000AF78607B68EE
:105270000022DA617B6800221A627B6800229A6150
:1052800000BF0C37BD465DF8047B704780B58CB01D
:1052900000AFF860B9607A60FB70FB68002B03D147
:1052A000F22387F82F307FE0BB68002B03D1FF2368
:1052B00087F82F3078E0EFF310833B623B6ABB62E4
:1052C00072B600BFBFF34F8F00BFBFF36F8F00BF39
:1052D000FB681B78042B03D0F22387F82F3057E0AC
:1052E000FB689B69002B25D10021F868FFF78AF83D
:1052F00078627B6A002B0DD07B6A9869FB681B7C07
:105300001A46B96802F030FB00F038FB002387F83A
:105310002F303DE0FB68DB68002B07D0B968F868E8
:10532000FFF726FF002387F82F3031E0EE2387F8C0
:105330002F302DE0FB689A69FB685B699A420FD2B7
:10534000FB78002B04D0B968F868FFF73AFF03E058
:10535000B968F868FFF70CFF002387F82F3017E0D3
:105360007B68002B03D1F52387F82F3010E0BB6852
:105370007B61FB783B760F4B1B6807F114029A6147
:105380007A680421F868FEF7A1FF034687F82F30FA
:10539000BB6AFB61FB6983F3108800BFBFF34F8FCB
:1053A00000BFBFF36F8F00BF97F92F30184630371B
:1053B000BD4680BDE441002080B588B000AFF860F4
:1053C000B9603B601346FB71FB68002B02D1F223EE
:1053D000FB7749E0FB79002B02D1FE23FB7743E00A
:1053E000BB68002B05D03B68002B02D1FE23FB7766
:1053F0003AE0BB68002B05D13B68002B02D0FE23AE
:10540000FB7731E0EFF310837B617B69BB6172B6A0
:1054100000BFBFF34F8F00BFBFF36F8F00BFFB68AC
:105420001B78002B02D0F223FB7711E00421F868EF
:10543000FEF711FFFB68BA68DA60FB68FA791A7444
:10544000FB683A685A61F868FFF70DFF0023FB77A5
:10545000BB693B613B6983F3108800BFBFF34F8F8B
:1054600000BFBFF36F8F00BF97F91F30184620377A
:10547000BD4680BD80B58AB000AFF860B9607A6083
:10548000FB68002B03D1F22387F8273064E0BB6868
:10549000002B03D1FF2387F827305DE0EFF3108363
:1054A000BB61BB693B6272B600BFBFF34F8F00BFE9
:1054B000BFF36F8F00BFFB681B78042B03D0F22370
:1054C00087F827303CE0FB689B69002B25D0B96842
:1054D000F868FFF79FFE0021F868FEF793FFF86178
:1054E000FB69002B15D0FB699B691B79002B07D04A
:1054F000FB699B691B681946F868FFF762FE06E0C6
:10550000FB699B691B681946F868FFF731FE00F0DC
:1055100035FA002387F8273012E07B68002B03D18F
:10552000F62387F827300BE00E4B1B68BA689A61A8
:105530007A680321F868FEF7C9FE034687F827302A
:105540003B6A7B617B6983F3108800BFBFF34F8F99
:1055500000BFBFF36F8F00BF97F927301846283779
:10556000BD4680BDE441002080B586B000AF7860C4
:1055700039607B68002B02D1F223FB753DE03B686C
:10558000002B02D1FF23FB7537E0EFF31083FB60A4
:10559000FB683B6172B600BFBFF34F8F00BFBFF324
:1055A0006F8F00BF7B681B78042B02D0F223FB7542
:1055B00017E07B689B69002B11D07B68DA687B68F9
:1055C000DB697968097C01FB03F3D1187B681B7CDC
:1055D0001A46386802F0C8F90023FB7501E0F6238B
:1055E000FB753B69BB60BB6883F3108800BFBFF3EA
:1055F0004F8F00BFBFF36F8F00BF97F9173018466A
:105600001837BD4680BD80B584B000AFF860B96082
:105610007A6000237A68B968F868FFF737FE0346B6
:1056200018461037BD4680BD80B584B000AFF86025
:10563000B9607A6001237A68B968F868FFF726FED6
:10564000034618461037BD4680BD80B586B000AF12
:10565000786039607B68002B02D1F223FB7554E03F
:10566000EFF31083FB60FB683B6172B600BFBFF3D2
:105670004F8F00BFBFF36F8F00BF7B681B78042B79
:1056800002D0F223FB7534E07B689B69002B2ED09F
:105690003B68002B23D01DE07B68DA687B68DB6900
:1056A0007968097C01FB03F31A443B68114678686A
:1056B00098477B68DB6901337A685269B3FBF2F182
:1056C00002FB01F29A1A7B68DA617B689B695A1EB9
:1056D0007B689A617B689B69002BDDD102E078686A
:1056E000FFF7C1FD6FF016017868FEF7D9FD0023C2
:1056F000FB753B69BB60BB6883F3108800BFBFF3D9
:105700004F8F00BFBFF36F8F00BF97F91730184658
:105710001837BD4680BD80B487B000AF78607B6825
:10572000002B02D10023FB752FE0EFF31083FB6009
:10573000FB683B6172B600BFBFF34F8F00BFBFF382
:105740006F8F00BF7B681B78042B02D00023FB7592
:105750000FE07B68DB68002B03D07B689B69002B24
:1057600001D1012300E00023FB75FB7D03F0010361
:10577000FB753B69BB60BB6883F3108800BFBFF358
:105780004F8F00BFBFF36F8F00BFFB7D18461C37E4
:10579000BD465DF8047B704780B487B000AF786089
:1057A0007B68002B02D10023FB753DE0EFF31083F3
:1057B000FB60FB683B6172B600BFBFF34F8F00BF59
:1057C000BFF36F8F00BF7B681B78042B02D00023D0
:1057D000FB751DE07B68DB68002B09D07B689A694C
:1057E0007B685B699A420CBF01230023DBB20EE0A9
:1057F0007B685B68002B04D07B685B689B68002B30
:1058000001D1012300E0002303F00103DBB2FB75AB
:105810003B69BB60BB6883F3108800BFBFF34F8F49
:1058200000BFBFF36F8F00BFFB7D18461C37BD461E
:105830005DF8047B704780B487B000AF78607B6808
:10584000002B02D100237B6122E0EFF31083FB6089
:10585000FB683B6172B600BFBFF34F8F00BFBFF361
:105860006F8F00BF7B681B78042B02D000237B6105
:1058700002E07B689B697B613B69BB60BB6883F32B
:10588000108800BFBFF34F8F00BFBFF36F8F00BF03
:105890007B6918461C37BD465DF8047B70470000E5
:1058A00090B482B000AF0D4B1B68002B01D10023D8
:1058B0000FE00A4B1B683B603B68B3FA83F31C465E
:1058C0002346C3F11F037B60054A7B6852F83330DF
:1058D0009B6818460837BD4690BC704720030020DF
:1058E000EC41002080B584B000AF78607B681B7904
:1058F000FB60FB68DB000A4A1A447B681C331946CC
:105900001046FEF75BFF0122FB689A40054B1B68BF
:105910001343044A136000BF1037BD4680BD00BF6B
:10592000EC4100202003002080B584B000AF7860F7
:105930007B681B79FB60FB68DB000E4A1A447B68BE
:105940001C3319461046FEF75DFF0A4AFB6852F801
:105950003330002B09D10122FB6802FA03F3DA434A
:10596000054B1B681340044A136000BF1037BD4647
:1059700080BD00BFEC4100202003002080B582B034
:1059800000AF264B1B78DBB283F00103DBB2002BA8
:1059900002D0EA23FB713AE0214B1B78DBB2002BEB
:1059A00002D0FC23FB7132E01E4B1B78DBB2002BD4
:1059B00002D0FD23FB712AE0FFF772FF03461A4A6B
:1059C0001360194B1B68002B11D162B600BFBFF3E7
:1059D0004F8F00BFBFF36F8F00BF00BF00BF72B615
:1059E00000BFBFF34F8F00BFBFF36F8F07E00F4BB8
:1059F0001A680D4B1B689A4201D001F04BFE0B4B0D
:105A00001B681B7BDBB2802BD6D10023FB7197F97F
:105A1000073018460837BD4680BD00BF1D03002073
:105A2000E8410020A84100209C410020E4410020E2
:105A300080B584B000AF3B4B1B78DBB2002B02D0AB
:105A4000F423FB7368E0EFF310837B607B68BB603B
:105A500072B600BFBFF34F8F00BFBFF36F8F00BFA1
:105A6000314B00221A60314B00221A70304B002259
:105A70001A700023BB810EE0BB89DB002D4A134462
:105A800000221A60BB89DB002A4A134400225A60B4
:105A9000BB890133BB81BB891F2BEDD9264B00226B
:105AA0001A60254B00225A60244B00221A71234BA6
:105AB00080221A73214B00225A61204B00229A61E6
:105AC0001E4B00229A601D4B1C4A5A621B4B1B4AFC
:105AD0001A631A4B00221A611848FFF703FF184B8C
